:1000000012C02CC02BC02AC029C028C027C026C0BF
:1000100025C024C023C022C021C020C01FC01EC0D4
:100020001DC01CC01BC011241FBECFE5D4E0DEBF25
:10003000CDBF10E0A0E6B0E0EAE7F8E002C005902E
:100040000D92A838B107D9F710E0A8E8B0E001C0D8
:100050001D92A439B107E1F79BD00EC4D1CF809196
:100060008800909189008130910559F480918C002D
:1000700090918D0020918A0030918B00820F931F08
:1000800021C08230910559F480918A0090918B00B3
:1000900020918C0030918D00821B930B13C0833014
:1000A0009105A9F480918C0090918D0020918A0097
:1000B00030918B00AC01429FC001439F900D529F35
:1000C000900D112490938F0080938E0013C0843084
:1000D000910571F460918C0070918D0080918A007F
:1000E00090918B00A2D370938F0060938E0002C01A
:1000F000892B29F180918E0090918F008436910593
:1001000014F18FE088BB86E085BB89E782BB8FE76F
:1001100088BB86B3282F30E08F37A9F3C9018F70D1
:1001200090708E30910579F79093910080939000B4
:1001300081E090E0909393008093920008958091E5
:100140008C0090918D0090938B0080938A0008958D
:100150009C016AE070E069D3FC01EE0FFF1FE05ADA
:10016000FF4F808185BBC9016AE070E05ED3FB016F
:10017000EE0FFF1FEC58FF4F808182BB24EF31E070
:1001800088EC90E00197F1F721503040C9F70895CD
:100190008FEF84BB81BB90EF97BB9FE098BB85BB83
:1001A00012BA24EF31E088EC90E00197F1F721508A
:1001B0003040C9F78BEF85BB86E782BB28EE33E082
:1001C00088EC90E00197F1F721503040C9F78FEFAC
:1001D00085BB12BA26B3822F90E090939100809352
:1001E00090002F30B9F38FEE88BB86B3282F30E014
:1001F00030939100209390008F3E59F1C9018F7088
:10020000907090939100809390000E9711F58091DB
:10021000880090918900059741F410928D0010920A
:100220008C00109289001092880080918C0090912F
:100230008D009C0173E0220F331F7A95E1F7880F40
:10024000991F820F931F079690938D0080938C00C7
:100250007FDF8FEE88BB86B3282F30E0309391008C
:10026000209390008F3E59F1C9018F709070909348
:100270009100809390000D9711F5809188009091E6
:100280008900059741F410928D0010928C00109215
:1002900089001092880080918C0090918D009C01C3
:1002A00053E0220F331F5A95E1F7880F991F820FF1
:1002B000931F089690938D0080938C0049DF8FEEFA
:1002C00088BB86B3282F30E03093910020939000B4
:1002D0008F3E59F1C9018F70907090939100809377
:1002E00090000B9711F580918800909189000597F7
:1002F00041F410928D0010928C001092890010929F
:10030000880080918C0090918D009C01B3E0220FB9
:10031000331FBA95E1F7880F991F820F931F099633
:1003200090938D0080938C0013DF8FEE88BB86B393
:10033000282F30E030939100209390008F3E01F100
:10034000C9018F70907090939100809390000797EF
:10035000B9F485DE8091920090919300019709F4A1
:100360004FC210928D0010928C0084E090E0909328
:1003700089008093880080918A0090918B00E8DE4C
:100380008FED88BB86B3282F30E030939100209307
:1003900090008F3D59F1C9018F709070909391003A
:1003A000809390000E9711F58091880090918900BC
:1003B000059741F410928D0010928C0010928900E4
:1003C0001092880080918C0090918D009C01F3E048
:1003D000220F331FFA95E1F7880F991F820F931FA1
:1003E000049690938D0080938C00B2DE8FED88BBD5
:1003F00086B3282F30E030939100209390008F3DFA
:1004000059F1C9018F709070909391008093900082
:100410000D9711F58091880090918900059741F41E
:1004200010928D0010928C0010928900109288001A
:1004300080918C0090918D009C0173E0220F331FFE
:100440007A95E1F7880F991F820F931F0596909375
:100450008D0080938C007CDE8FED88BB86B3282FC7
:1004600030E030939100209390008F3D59F1C90105
:100470008F70907090939100809390000B9711F57E
:100480008091880090918900059741F410928D0029
:1004900010928C00109289001092880080918C003C
:1004A00090918D009C0153E0220F331F5A95E1F784
:1004B000880F991F820F931F069690938D0080934B
:1004C0008C0046DE8FED88BB86B3282F30E030935A
:1004D0009100209390008F3D01F1C9018F709070C1
:1004E00090939100809390000797B9F4B8DD8091C4
:1004F000920090919300019709F482C110928D00AF
:1005000010928C0083E090E09093890080938800A3
:1005100080918A0090918B001BDE8FEB88BB86B3A5
:10052000282F30E030939100209390008F3B59F1B9
:10053000C9018F70907090939100809390000E97F6
:1005400011F58091880090918900059741F41092EF
:100550008D0010928C00109289001092880080917A
:100560008C0090918D009C01B3E0220F331FBA954F
:10057000E1F7880F991F820F931F019690938D00CA
:1005800080938C00E5DD8FEB88BB86B3282F30E0AD
:1005900030939100209390008F3B59F1C9018F70E7
:1005A000907090939100809390000D9711F5809139
:1005B000880090918900059741F410928D00109267
:1005C0008C00109289001092880080918C0090918C
:1005D0008D009C01F3E0220F331FFA95E1F7880F9D
:1005E000991F820F931F029690938D0080938C0029
:1005F000AFDD8FEB88BB86B3282F30E030939100BE
:10060000209390008F3B59F1C9018F7090709093A7
:100610009100809390000B9711F580918800909144
:100620008900059741F410928D0010928C00109271
:1006300089001092880080918C0090918D009C011F
:1006400073E0220F331F7A95E1F7880F991F820F0D
:10065000931F039690938D0080938C0079DD8FEB30
:1006600088BB86B3282F30E0309391002093900010
:100670008F3B01F1C9018F7090709093910080932E
:1006800090000797B9F4EBDC809192009091930071
:10069000019709F4B5C010928D0010928C0082E091
:1006A00090E0909389008093880080918A009091D7
:1006B0008B004EDD8FE788BB86B3282F30E0309368
:1006C0009100209390008F3719F1C9018F709070BD
:1006D00090939100809390000E97D1F410928F0028
:1006E00010928E00109289001092880010928D0056
:1006F00010928C0010928B0010928A008FEF85BBB5
:1007000012BA80E29EE40197F1F780E090E020DDEC
:100710008FE788BB86B3282F30E030939100209379
:1007200090008F3751F1C9018F70907090939100B4
:10073000809390000D9709F5809188009091890031
:10074000059741F410928D0010928C001092890050
:100750001092880080918C0090918D009C0153E054
:10076000220F331F5A95E1F7880F991F820F931FAD
:1007700090938D0080938C00EBDC8FE788BB86B371
:10078000282F30E030939100209390008F37D9F0DC
:10079000C9018F70907090939100809390000B9797
:1007A00091F45DDC8091920090919300019741F16A
:1007B00085E090E0909389008093880080918A0082
:1007C00090918B00C5DC8FE788BB86B3282F30E083
:1007D00030939100209390008F3709F4FBCCC9012E
:1007E0008F7090709093910080939000079709F01C
:1007F000F1CC35DC8091920090919300019729F41F
:10080000109293001092920069CF10928D00109276
:100810008C0081E090E09093890080938800809123
:100820008A0090918B0094DCD5CC97FB092E07268B
:100830000AD077FD04D00CD006D000201AF47095B1
:1008400061957F4F0895F6F7909581959F4F089594
:10085000AA1BBB1B51E107C0AA1FBB1FA617B707E6
:1008600010F0A61BB70B881F991F5A95A9F7809502
:0A0870009095BC01CD010895FFCF63
:10087A004800F900A400B000910092008200F8003C
:10088A00800090003F0006005B004F0066006D008C
:08089A007D0007007F006F00E4
:00000001FF
