:1000000012C02CC02BC02AC029C028C027C026C0BF
:1000100025C024C023C022C021C020C01FC01EC0D4
:100020001DC01CC01BC011241FBECFE5D4E0DEBF25
:10003000CDBF10E0A0E6B0E0E2E9F0E002C005903C
:100040000D92A036B107D9F710E0A0E6B0E001C0EC
:100050001D92A036B107E1F702D01AC0D1CF8FEFC1
:1000600081BB82BB24EF31E088EC90E00197F1F78F
:1000700021503040C9F717BA86B3803F11F488EF9A
:1000800001C086B382BB80E197E20197F1F7F4CF1C
:02009000FFCFA0
:00000001FF
